:020000040800F2
:10000000D8180120A102000869CB0008279D00082C
:1000100073C10008F3110008593E010800000000F8
:10002000000000000000000000000000450801087A
:10003000551A000800000000A50B0008CD080108B3
:10004000DB020008DB020008DB020008DB0200081C
:10005000DB020008DB020008DB020008DB0200080C
:10006000DB020008DB020008DB020008DB020008FC
:10007000DB020008DB020008DB020008DB020008EC
:10008000DB020008DB020008DB020008DB020008DC
:10009000DB020008DB020008DB020008DB020008CC
:1000A000DB020008DB020008DB020008DB020008BC
:1000B000DB020008DB020008DB020008DB020008AC
:1000C000DB020008DB020008DB020008DB0200089C
:1000D000DB020008E53D0108DB020008DB02000846
:1000E000DB020008DB020008DB020008DB0200087C
:1000F000DB020008DB020008DB020008DB0200086C
:10010000DB020008DB020008DB020008DB0200085B
:10011000DB020008DB020008DB020008DB0200084B
:10012000DB0200089D170008DB020008DB02000864
:10013000DB020008DB020008DB020008DB0200082B
:10014000DB020008DB020008DB020008DB0200081B
:10015000DB020008DB020008DB020008DB0200080B
:10016000DB020008DB020008DB020008DB020008FB
:10017000DB020008DB02000869170008000000002D
:10018000DB020008DB020008DB020008DB020008DB
:10019000DB020008DB020008DB020008DB020008CB
:1001A000DB020008DB020008DB02000800F002F8B6
:1001B00000F067F80AA090E8000C82448344AAF19A
:1001C0000107DA4501D100F05CF8AFF2090EBAE898
:1001D0000F0013F0010F18BFFB1A43F0010318477B
:1001E0005CE00B007CE00B000A444FF0000C10F8C0
:1001F000013B13F0070408BF10F8014B1D1108BFA5
:1002000010F8015B641E05D010F8016B641E01F844
:10021000016BF9D113F0080F1EBF10F8014BAD1C94
:100220000C1B09D16D1E58BF01F801CBFAD505E0B2
:1002300014F8016B01F8016B6D1EF9D59142D6D30C
:10024000704700000023002400250026103A28BF34
:1002500078C1FBD8520728BF30C148BF0B60704738
:10026000642900F0A380782900F0DC80732900F075
:100270009583002070471FB520F06BFD1FBD10B5A2
:1002800010BD00F003FC1146FFF7F5FF1FF05CFC0A
:1002900000F021FC03B4FFF7F2FF03BC1EF01CF8D2
:1002A00011488047DFF84400016841F470010160A3
:1002B000BFF34F8FDFF83800016821F04041016043
:1002C000BFF36F8F0B480047FEE7FEE7FEE7FEE750
:1002D000FEE7FEE7FEE7FEE7FEE7FEE70648074922
:1002E000074A084B70470000F108010888ED00E05C
:1002F00034EF00E0AD010008D80C0120D81801202F
:10030000D80E0120D80E012072B6704762B6704731
:10031000EFF3108072B6704780F31088704730BFDB
:10032000704720BF7047B0FA80F0704790FAA0F095
:10033000B0FA80F0704790FAA0F070477047000064
:100340000FB4044910B503AA029800F02BFB10BCAF
:100350005DF814FB2400002070B50C460546012A08
:1003600005D02878800600D5EA69002302E0012341
:1003700005E05B1C934202D2E05C0028F9D1A86939
:10038000E618C01AA861286A184428622846AFF304
:10039000008004E0D5E9012114F8010B9047B44234
:1003A000F8D32846AFF3008070BD00002DE9F0417E
:1003B0000646002410687529314616A510D0AFF303
:1003C0000080002802DA404213A507E031688A075E
:1003D00001D512A502E0490704D511A5012401E0C9
:1003E000AFF3008000210A2206F1240709E0B0FBE8
:1003F000F2FCB0FBF2F302FB1C00303078541846DC
:10040000491C0028F3D123462A463046BDE8F04176
:1004100000F059BA000000002D0000002B00000081
:100420002000000070B504460D4621461068AFF369
:1004300000802188090502D50F4A7A4402E00E4A5D
:100440007A440E32002104F1240305E000F00F0687
:100450000009965D5E54491C0028F7D120780023DE
:10046000000704D5702D02D009B1022311322046B5
:10047000BDE8704000F027BAFADC0B002DE9F0412E
:100480000F460546002028622846E968884770B371
:10049000252805D0D5E901219047286A401CF2E7BC
:1004A000E9682846002688476C2804460AD0682C4C
:1004B00008D04C2C35D06A2C31D0742C31D07A2C09
:1004C0002FD016E0E968064628468847B042044621
:1004D00008D16C2E23D04FF480662846E9688847FF
:1004E000044606E06C2E03D04FF4807601E01EE057
:1004F0004026E4B1A4F14100192802D8203446F482
:1005000000663A46214628462E60FFF7A9FE60B1F4
:10051000012808D0FF1D27F007070837B4E7802619
:10052000DBE70026D9E73F1DAEE72046B2E7286AA1
:10053000BDE8F08140EA010310B59B070FD1042A02
:100540000DD310C808C9121F9C42F8D020BA19BA9E
:10055000884201D9012010BD4FF0FF3010BD1AB103
:10056000D30703D0521C07E0002010BD10F8013B58
:1005700011F8014B1B1B07D110F8013B11F8014B7F
:100580001B1B01D1921EF1D1184610BD40EA010398
:10059000024630B59B0710D14FF0013400E008C28D
:1005A00008C91D1B9D4315EAC41FF8D013F0FF01B5
:1005B00002F8011B0DD01B0AF8E711F8013B002BD4
:1005C00002F8013B05D011F8013B002B02F8013B7A
:1005D000F3D130BD10B5431C02E010F8011B71B11E
:1005E0008107FAD14FF0013202C88C1A8C4314EA09
:1005F000C211F9D0C01A0A0603D0C01E10BDC01A1D
:1006000010BD0A0401D0801E10BD0902FCD0401E9E
:1006100010BD032A40F2308010F0030C00F015806A
:1006200011F8013BBCF1020F624498BF11F801CBF5
:1006300000F8013B38BF11F8013BA2F1040298BF5A
:1006400000F801CB38BF00F8013B11F0030300F0C4
:100650006780083AC0F0088051F8043B083A51F826
:1006600004CBA0E80810F5E7121D5CBF51F8043B6D
:1006700040F8043BAFF30080D20724BF11F8013BE0
:1006800011F801CB48BF11F8012B24BF00F8013B42
:1006900000F801CB48BF00F8012B7047431A28BF70
:1006A0009A427FF6B6AF032A1044114440F22680E6
:1006B00010F0030F1EBF11F8013D521E00F8013D5E
:1006C00010F0030F7FF4F6AF11F0030300F08F81F9
:1006D000083AC0F00B8051F8043D083A51F804CDB7
:1006E00040F8043D40F804CDFFF7F3BF121D5CBF96
:1006F00051F8043D40F8043DAFF30080D20724BF19
:1007000011F8013D11F801CD48BF11F8012C24BFAB
:1007100000F8013D00F801CD48BF00F8012C7047FA
:1007200010B5203AC0F00B80B1E81850203AA0E88C
:100730001850B1E81850A0E81850BFF4F5AF5FEAC0
:10074000027C24BFB1E81850A0E8185044BF18C973
:1007500018C0BDE810405FEA827C24BF51F8043B1A
:1007600040F8043B08BF7047D20728BF31F8023B6E
:1007700048BF11F8012B28BF20F8023B48BF00F802
:10078000012B704702F0FF0343EA032242EA0242D0
:1007900000F002B84FF000020429C0F0128010F0FF
:1007A000030C00F01B80CCF1040CBCF1020F18BF4D
:1007B00000F8012BA8BF20F8022BA1EB0C0100F0E0
:1007C0000DB85FEAC17C24BF00F8012B00F8012BB3
:1007D00048BF00F8012B70474FF0000200B51346E8
:1007E00094469646203922BFA0E80C50A0E80C5051
:1007F000B1F12001BFF4F7AF090728BFA0E80C5002
:1008000048BF0CC05DF804EB890028BF40F8042BFA
:1008100008BF704748BF20F8022B11F0804F18BF67
:1008200000F8012B704700004FF0013C50F8042BFA
:1008300051F8043B9A4221D1A2EB0C03934313EAF3
:10084000CC1317D150F8042B51F8043B9A4215D120
:10085000A2EB0C03934313EACC130BD150F8042BF7
:1008600051F8043B9A4209D1A2EB0C03934313EADB
:10087000CC13DBD04FF00000704700BFD01A01BA94
:10088000B1FA81F101F0180122FA01F0CB40C1F177
:100890002001DBB2C0B2C01A2CFA01F3D11A914385
:1008A00011EAC311E6D1704770477047704770472F
:1008B00010B500F0C7F8006810BD10B5044600F090
:1008C000C1F8046010BD2DE9F0470D4699469246E7
:1008D000044600F124080168880604D5E06921F087
:1008E0001001216000E00120A84201DD471B00E06B
:1008F0000027A1697A1902EB0900081AA061207883
:10090000C00602D42046AFF30080002608E0D4E9F8
:1009100001211AF806009047206A401C761C2062CC
:100920004E45F4DB2078C0060AD52046AFF30080A0
:1009300006E0D4E9012130209047206A401C206263
:10094000381EA7F10107F4DC07E0D4E9012118F80B
:1009500005009047206A401C2062281EA5F1010571
:10096000F3DC2046AFF300802078000602D5022099
:10097000BDE8F0870120FBE710B5436913B1AFF381
:10098000008001E0FFF7E8FC012010BD127800F1C3
:1009900024010A7000224A700122EDE711684FF02D
:1009A000FF32E9E7074B70B50D467B4400F053F882
:1009B0000446284600F062F810B14FF0FF3070BDD9
:1009C000204670BD37EC0100431A28BF9A427FF6DB
:1009D000A7AE104410F0030F11441EBF11F8013DE3
:1009E000521E00F8013D10F0030F7FF4F6AF103AED
:1009F000C0F00A8010B531E91850103A20E91850BB
:100A0000BFF4F9AFBDE81040530724BF31E9081027
:100A100020E9081044BF51F8043D40F8043D12F0AD
:100A2000030F08BF7047D20728BF31F8023D48BF07
:100A300011F8012C28BF20F8023D48BF00F8012C16
:100A40007047000000487047780C012001694A1C7B
:100A500002610878704700B58FB0CDE901310021FF
:100A6000059105497944CDE9031011466846FFF721
:100A700005FD0FB000BD0000E5FFFFFF007B00F0AB
:100A80008000704700487047780C01207546FFF7DA
:100A9000F9FFAE4605006946534620F0070085463B
:100AA00018B020B5FFF71AFCBDE820404FF0000653
:100AB0004FF000074FF000084FF0000B21F0070146
:100AC000AC46ACE8C009ACE8C009ACE8C009ACE889
:100AD000C0098D46704710B50446AFF3008020462C
:100AE000BDE81040FFF7D6BBEFF3098141B1F1EE4D
:100AF000101A40F8041D20ED200A3E490A681060D3
:100B00007047B0EC200A02C8E1EE101A3A490A68B0
:100B10001060704772B64EF62250CEF2000040F2DE
:100B2000FF01C0F2000101704FF0000080F309885E
:100B30000DF078F940F29410C2F20000016881F3E0
:100B4000088840F21E10C2F2000040F21F11C2F2EB
:100B500000010A78027040F28C15C2F2000540F2E2
:100B60009011C2F200010A682A60106880F30988B7
:100B7000EFF3148040F0020080F31488BFF36F8F0E
:100B8000BDE8F00F0FBCBDE8005006BC62B60847D8
:100B90001A484FF080510160704718484FF080515B
:100BA0000160704772B6EFF3098020E9F00F40F260
:100BB0008C15C2F200052E68306074460DF032F9D3
:100BC00040F21E10C2F2000040F21F11C2F20001FA
:100BD0000A78027040F29011C2F200010A682A609D
:100BE00044F0F40E1068B0E8F00F80F3098862B6A4
:100BF000704700008C0100209001002004ED00E00F
:100C000009F0DCBA2DE9F0410D460146002004460A
:100C10004E1908E00702301B401E80B200F007F8B2
:100C2000641C3844E4B2AC42F4D3BDE8F08110B5A2
:100C3000044609F06BFB200AA02101EB4000C0B282
:100C400009F034FB09F0A4FBE0B209F02FFB09F036
:100C50009FFB09F05BFBA12009F028FB09F098FB42
:100C6000002009F0EFFA044609F070FB204610BDA1
:100C70002DE9F04116460D460746002409E0E00044
:100C800025FA00F0C1B2381980B200F006F8641CF1
:100C9000E4B2B442F3D3BDE8F08170B50D4604462A
:100CA00009F034FB200AA02101EB4000C0B209F09A
:100CB000FDFA09F06DFBE0B209F0F8FA09F068FB03
:100CC000284609F0F3FA09F063FB09F03FFBBDE8A1
:100CD00070400A201DF07CBC002800DC40427047B8
:100CE00038B5456804460146284613F0CFF8002879
:100CF0002BD02068304A11280DD006DC0B2825D0D7
:100D00000E2833D00F2852D112E0282849D0B0F550
:100D1000107F4CD108E09268002A16D02146284660
:100D200001B0BDE830401047214628465268F7E739
:100D3000284603F089FE0090406E0468684603F080
:100D4000EDFE002C01D02846A04738BD284603F010
:100D50007BFE0090683003F0CDFD009803216C30DD
:100D600003F0D6FD684603F0D9FE20E0E16848684C
:100D700009680D2902D0202913D105E0002810DDD3
:100D800028461AF099FA06E0002804DD2846BDE856
:100D900038401AF091BA2846BDE8384002211AF0CE
:100DA000A1BAE06818B90021284600F0B7F920463A
:100DB000BDE8384013F008BBC00200202DE9FF4118
:100DC0000AAF97E87000002703958DE8D00000F087
:100DD00003F804B0BDE8F081F0B585B00DF1280C42
:100DE0009CE8F0004FF0000C8DE8F01000F024F8C3
:100DF00005B0F0BDF0B5044685B08069B4F908507F
:100E0000668A0027CDE90265CDE900170490B4F9A0
:100E10000C00B4F91060C118B4F90A00B4F90E500E
:100E2000104433462A4600F007F80546616800F092
:100E300094F905B02846F0BD2DE9F04F85B01F4666
:100E4000DDE911B4DDE90E5690468946824604F08C
:100E5000D5FE16484C34CDE90204CDE900563B4698
:100E600042464946504613F0F7F9040018D003F003
:100E7000EBFD10225946049013F030F9049830220B
:100E80000B493430FFF74CFC094D04990C3D2868A0
:100E9000486604A803F042FE286841682046884757
:100EA00006F0C4F905B02046BDE8F08FE10C00085B
:100EB000CC020020F0B5044680688B4989B051F817
:100EC0002050606800287DD0052804D006287AD0FC
:100ED000122879D1AEE0E86900284FD095E80E00DD
:100EE0008DE80F0004F110010FC906F039FF00264C
:100EF00055F8260005F01BFDA169E8690A1A216969
:100F000001446069304404F0B1FBA169E8690A1A40
:100F100021690144E069801B04F0A8FBE169E869EC
:100F20000A1A616901442069304404F075FCE169E2
:100F3000E8690A1A61690144A069801B04F06CFC2D
:100F4000761C022ED4DBA86805F0F1FCE069E969A3
:100F50006669431A206942183144801C521E04F00D
:100F6000B7FCE169E869A2690B1A61690144101ACA
:100F7000401C921E04F0ACFCEE6913E05FF000062A
:100F800055F8260005F0D3FCE069831BA069821B9D
:100F9000606981192069304404F0DEFB761C022E62
:100FA000EEDB0226D5E90301CDE900016169E069C4
:100FB00008444310A069891C821B2069304404F056
:100FC000EFFA02E089E012E08AE0D5E90501CDE917
:100FD0000001E36960690121184401EB6001A06927
:100FE0009B1E821B2069304404F0DAFA78E0206806
:100FF00003F02AFD0490206814F0ECFD40B1A068D5
:1010000008B1002008E00498006F28B1012003E037
:101010000498406F00B10220049901EB8000C56E76
:1010200004A803F07BFD00231A462846216804F03B
:10103000A5F855E0206803F007FD0490866EEEB336
:10104000B0F95C70A168D1B3032942D05FF0000110
:1010500000EB8101406D0C6C05F098FC204605F01A
:1010600066FC05A804F0F6FCBDF81410A88B01443A
:10107000ADF81410BDF81810081AADF81800BDF836
:101080001600801CADF81600BDF81A00801EADF8E1
:101090001A000498B0F96020B0F95E1005A805F0B8
:1010A00001FB04A803F03AFD022005F0DBFC30460A
:1010B00003F0CAFC3A4605A9079001E00BE006E000
:1010C00004F04CF90DF11C0003F028FD08E00121AB
:1010D000BEE70221BCE704A8F6E7206814F004FA92
:1010E00009B00020F0BD0000F4D70B0870B516461B
:1010F0000C46054619463046049A04F001F80246AB
:1011000021462846BDE8704000F054B800294FF051
:10111000100101D012F04EBF12F09FBE4FF480724A
:101120000029114601D012F045BF12F096BE08B555
:101130000023009300F001F808BD70B516460C4678
:10114000054619463046049A03F0FAFF0246214646
:101150002846BDE8704000F02DB82DE9FF410E464D
:1011600005004FF0010421D004F048FD284603F0AB
:101170006BFC0190876E01A8009703F0CFFC31460D
:10118000684607F041F978B100980024B84208D0C9
:10119000284603F059FC01900099816601A803F0EC
:1011A000BDFC284613F094FE06F040F804B020463B
:1011B000BDE8F081F8B515460C46060018D004F0DD
:1011C0001DFD304603F040FC0090032C0BD200EBD9
:1011D00084006C3003F08EFB009800EB8400C56641
:1011E000304613F075FE684603F098FC06F01EF8D2
:1011F000F8BDFEE700F096FA02490860642003F0AB
:10120000D3FFFBE7D4010020054910B5002048605A
:1012100000F0A6F800F006F8BDE8104000F086B82F
:10122000A40000202DE9F041104F002635463E80F5
:101230007E80BE60FE607E61BE613E61FFF768F841
:10124000804600247E6100F049F800F057F8786984
:10125000641C24040544240CF4D0C7E90456404619
:10126000BE61BDE8F041FFF757B80000A4000020C0
:1012700003490969884201D9401A70470020704724
:10128000A400002010B5FFF743F804494C69FFF7AC
:1012900043F82046BDE81040FFF7EABFA400002055
:1012A00010B5FFF7EFFF0446FFF732F8034A0021BD
:1012B0005161FFF731F8204610BD0000A400002066
:1012C00010B5FFF725F804498C69FFF725F820468B
:1012D000BDE81040FFF7CCBFA400002010B5064CBD
:1012E0002088401C2080608810B900F051F8A06070
:1012F0006088401C608010BDA400002010B50A4C1E
:101300006088401E0004000C60800CD100F040F8A2
:10131000E060A168401A6169814200D26061A16900
:10132000814200D2A06110BDA400002010B5FEF7DC
:10133000EFFF0446FFF7D2FF102105480AF01AFF1D
:10134000FFF7DCFF2046BDE81040FEF7E5BF0000D8
:1013500000F000200149486070470000A400002010
:1013600010B508F03DF808490A6842F080720A603A
:10137000064900224A600A6842F001020A60BDE89C
:101380001040FFF7E7BF0000FCED00E0001000E0B8
:101390000148406870470000001000E070B50E4C36
:1013A0000025C4F898520D48016821F0C001016081
:1013B000016841F0400101600948C0F88C520220E8
:1013C00004F526741DF02CF90120206002201DF088
:1013D00027F9256070BD00000080434200200240D4
:1013E00000004442154810B5016886B041F0800104
:1013F0000160016801F080010591016841F480718C
:1014000001600068012400F4807005904020CDE95F
:1014100000040320CDE902406946094807F0D2F9EB
:10142000082000906946074807F0CCF90648C0F844
:101430008C420648C0F8984206B010BD30380240D1
:10144000001C024000200240000044420080434251
:1014500070B50E4C0026C4F898620D48016821F062
:10146000C0010160016841F04001016009480125A7
:10147000C0F88C52022004F526741DF0D1F82560C6
:1014800002201DF0CDF8266070BD000000804342B0
:1014900000200240000044422DE9F04782461948EE
:1014A0000024016821F0C0010160016801601E2074
:1014B0001DF0B6F80025144EDFF850902F464FF07F
:1014C0000108C6F8987202201DF0AAF8C6F89882A2
:1014D0006006040ED9F80C0208B1641CE4B20220C4
:1014E0001DF09EF86D1CEDB2082DEAD3BAF1000F85
:1014F00004D0FFF753FF2046BDE8F087FFF7A8FFB1
:10150000F9E700000020024000804342000044420E
:101510002DE9F04705461648016821F0C001016039
:10152000016841F040010160124E0027C6F8987230
:1015300002201DF075F8DFF8408000244FF001090B
:10154000E909C8F88C126806050E02201DF068F83B
:10155000C6F8989202201DF063F8C6F8987202202F
:101560001DF05EF8641CE4B2082CE9D3BDE8F087F6
:1015700000200240008043420000444270B50F4802
:10158000016821F0C0010160016841F04001016083
:101590000B4E0120C6F88C020A4DC5F898021E2099
:1015A00005F5267506F523761DF03AF8002434601B
:1015B00002201DF035F82C6070BD000000200240B4
:1015C000000044420080434270B50F48016821F09A
:1015D000C0010160016841F0400101600B4E002034
:1015E000C6F898020A4DC5F88C021E2005F5237531
:1015F00006F526761DF014F80124346002201DF053
:101600000FF82C6070BD00000020024000804342B3
:101610000000444270B511480024016821F0C00167
:101620000160016801600E4D0120C5F88C020D4E6D
:10163000C6F8980207E0641CE4B2FA2C03D9FFF75D
:10164000C3FF012070BD02201CF0EAFFD5F80C0298
:101650000028F0D1C6F8980270BD000000200240BA
:1016600000004442008043421CB512F0FBFF0346D9
:10167000002000900190034A0621034803F016FC65
:101680001CBD000025E2010868790B082DED028BD6
:1016900082B0B3EE090A8DED000A00F01DF912F0D8
:1016A000E1FF03460020009001901B4A04211B48E3
:1016B00003F0FCFB40F6010112F0EAFF044613F0D0
:1016C00039F90546204613F04CF9154C2138353DC3
:1016D000C4E9025004F0DAF8B2EE048AF0EE008AAF
:1016E0002079012814D100F0C5F800EE100AB8EEF8
:1016F000C00AC0EE080ACDED000A20EEA80ABDEE31
:10170000C00A10EE100A643001B2E06902F0FAFA81
:10171000642003F049FDE3E7C1E00108F8780B0815
:10172000640901201CB514220A490B48FEF7F8FF92
:101730000948142209491430FEF7F2FF12F092FF13
:101740000346002000900190054A0921054803F056
:10175000ADFB1CBDD4770B083C090120E8770B08D2
:1017600035DE0108FC770B08014806F08DBF00004C
:10177000CC1A00200748016821F0010101600168CE
:10178000C907FCD104480068016821F0010101602B
:1017900070470000000005500C1B002030B41948B1
:1017A0001A4D1A4A0068184B184C603DB83A9842D6
:1017B00002D91549543903E0A04203D912495839D6
:1017C000096804E0A84201D9516800E0116811F4E9
:1017D000006F15D04FF40061984202D90A484C3886
:1017E00003E0A04203D908485038016004E0A84251
:1017F00001D9D16000E091600548406830BC0047E5
:1018000030BC70470C1B002058640240B860024096
:101810007400002070B515480024016821F440319F
:10182000016001680160124D04E0641CE4B2012013
:101830001CF0F6FED5F8200210B1C82CF5D30DE04F
:10184000C82C0BD2002404E0641CE4B201201CF07C
:10185000E7FED5F8200218B1F02C04D3012070BDAA
:10186000F02CF1D3FAE7002070BD00000014024014
:101870000080424270B500F0AFF800F08DF8FFF73D
:10188000C9FFCC2000F0B6F8BE2000F0B3F800F09D
:1018900073F8044600F070F8072805D9C043E14307
:1018A000C0B2CCB2002500E0012504EB002000B25C
:1018B0001EF081FE9FED061B53EC112B1EF0E2FE85
:1018C0001EF01CFE00B2002D01D1404200B270BDDE
:1018D000000000000000E43F0E4800B5016887B03A
:1018E00041F0200101600068694600F02000059089
:1018F0004FF480700090012001900290032003902B
:10190000054806F05FFF00F047F8FFF783FF07B0D8
:1019100000BD0000303802400014024070B5144C85
:10192000206820F440302060206840F4803020603F
:10193000104D0020C5F8A002022005F528751CF006
:101940006FFE01202860206820F44030206020686D
:1019500020600C201CF064FE55F8800C08B10124B6
:1019600000E0002432201CF05BFE204670BD000029
:10197000001402400080424270B500250124FFF7A8
:10198000CDFFC001641C40EA5500E4B2C5B2082C8A
:10199000F5D9284670BD00000D4810B5016821F446
:1019A00040310160016841F480310160094C002040
:1019B000C4F8A00240F2EE2004F528741CF030FEBA
:1019C00001202060BDE810400F201CF029BE00005F
:1019D000001402400080424210B5FFF7DDFFFFF720
:1019E00019FFCC2000F006F8BDE81040442000F0BC
:1019F00001B800002DE9F04105461448016821F4C2
:101A000040310160016841F4803101600124104ED1
:101A10000027A04615F0010F4FEA5505C6F8A07241
:101A200006D002201CF0FCFDC6F8A0823C2005E098
:101A30003C201CF0F5FDC6F8A08202201CF0F0FD51
:101A4000641CE4B2082CE5D9BDE8F0810014024022
:101A5000008042427047102A0FD0C26AD1E90023A9
:101A600042EA03220B89097B4FEA034343EA0161FF
:101A700042EA010203D1C26002E0C268EEE7C2623C
:101A80004FF000007047102A0FD0826AD1E900237E
:101A900042EA03220B89097B4FEA034343EA0161CF
:101AA00042EA010203D1826002E08268EEE78262CC
:101AB0004FF000007047000030B50A68102A1AD0B5
:101AC000026A104B02EA0302D1E9013443EA04033B
:101AD000D1E9034544EA050443EA04034C698969F2
:101AE00043EA442343EA413141EA020141F008015B
:101AF00003D1016002E00268E3E701624FF00000F9
:101B000030BD00008101F0FF70B5B3F5804F05D006
:101B10006FF0704140F82210002070BD50F8223064
:101B2000084C2340D1E9004544EA05148D688E89AC
:101B30002D0245EA064589692C430C431C4340F8B5
:101B40002240E9E70000F0CFF0B50C6850F82450CF
:101B5000194A1540D1E90123D1E903671A433E43ED
:101B600032434E6932438E693243CE6932430E6A44
:101B700032434E6A32438E6A3243CE6A3243CE6B70
:101B800032430E6B32434E6B32432A43082B01D152
:101B900042F0400240F824204A6BB2F5801F08D181
:101BA0000A6832B14FF480720A6104490268114335
:101BB00001600020F0BD00008000E0FF0001100087
:101BC000F0B500EB820253688E8903F04044D1E9FE
:101BD000003543EA05138D682D0245EA06452B437F
:101BE0000E8A0D4D05EB065633430E7D6F0107EB54
:101BF000066633438E693343234353600268D2023F
:101C000007D54268098A22F4700205EB015111439D
:101C100041600020F0BD00000000F0FF30B5D1E9C8
:101C200001231A43D1E9033423431A434B690D6856
:101C30001A438B691A43D1E90734012D496A0568B3
:101C40006FF30E0505D01A4322430A432A4302606C
:101C500008E0234329430B43416803606FF30E01FF
:101C60000A434260002030BD426942EA41014161BD
:101C700000207047F8B514460546D1E9000210432C
:101C80008A686FF01F03C96803EB421242EA4121E0
:101C900008430090286106F08DFE064609E0601CAE
:101CA00007D024B106F086FE801BA04201D9032094
:101CB000F8BDA8698006F2D40020F8BDF0B56FF039
:101CC0000F05D1E9003405EB04145B1E2E012343FC
:101CD0008C682F0306EB04244FEA054C23430D8A3E
:101CE0008E8ACC68097E4FF07F4E07EB05450CEBE2
:101CF00006560EEB0161012A0CD082683F1107EBFA
:101D0000043423432B43334302F070420B43134309
:101D100083600FE0C2682B430B4302F0704281687E
:101D2000134301F070422103A1F580513143114367
:101D3000C36081600020F0BD2DE9F04389B0984672
:101D400015460F4606004FF000042CD000F0A8FB0B
:101D50000446304600F08BFB814603F04FFF03A999
:101D6000304600F094FCF80706D0BDF91C00822133
:101D7000001B401B401C08E0B807BDF918002844B0
:101D800002D540F2022100E002210096CDE9018156
:101D900023461A464946FFF711F804460021FFF78B
:101DA000B5F905F043FA09B02046BDE8F08300001C
:101DB00010B50523FFF7C0FF0446054A0021FFF7D1
:101DC000B6F90449204613F074FA204610BD00000D
:101DD000756D010821DE01082DE9F04704464068D1
:101DE0008EB00027804602F02FFE0090B0F87CA055
:101DF000D0F86890D0F88060D0F88850C06D00B1FD
:101E00000768684602F08AFE05E069682046884750
:101E1000002843D12D68002DF7D12068172853D012
:101E20000CDC0F283DD004DC0B2877D00D2825D101
:101E30008BE0112810D0142820D13BE0262846D072
:101E400004DC1E2851D0202818D18AE02A2816D078
:101E5000B0F5107F12D128E04046E56802F0F4FDAD
:101E60000290697A39B9297A012904D130F87C1FA6
:101E700041F48071018002A802F050FE75E04046F6
:101E800002F0E2FD0090E16811B1C0F8841002E0B8
:101E9000D0F88400E060684602F040FE0EB0BDE875
:101EA000F087D7B34046B8475FE02146404619F077
:101EB00035FFF3E705A9404600F0E9FBE068069925
:101EC000016007994160E9E7C4F80C90E6E7E06833
:101ED0000228E3D1CDF83080E0680D9027200A90E9
:101EE0000AA9A06814F070F8D8E7E068012804D0C7
:101EF0000021404600F0F1FAD0E7304613F051F8E7
:101F000068B1304613F06AFA304612F00DFF98B10E
:101F10000121304612F04EF80EE026E02FE0484650
:101F200013F0B0FA0646404602F08EFD0090C0F86D
:101F30008060684602F0F2FD0121404600F0CDFAD3
:101F4000002EABD10020E060A8E75FEA0A700CD455
:101F5000E068C06848B1007A38B1404613F03EFAF4
:101F600003E02146404619F0DAF92146404611F0D7
:101F70008DFF002892D0204612F026FA8EE74046C8
:101F800002F062FD0090703002F0B4FC684673E726
:101F9000F0B587B0B0F908400DF10C0C0C9E8769C4
:101FA00045688CE8F000448A0025CDE900150294CC
:101FB000B0F90C10B0F91050B0F90E40B0F90A00A9
:101FC000194410442B46224600F002F807B0F0BD39
:101FD0002DE9F04F8BB09846DDE9155691468A46BB
:101FE0008346149F1A9C03F009FE3348603445F47D
:101FF0008055CDE90204CDE9007543464A46514675
:10200000584612F029F904004FD002F01DFD30228D
:102010000490179912F062F8049828222749343066
:10202000FEF77EFB04981999244F4166A0F87C6066
:102030000026C0F88060C666083FC0F888607968EE
:10204000C16504A802F06AFD05A9204600F01FFB47
:102050001B4841F2827103960094CDE90110BDF94D
:102060001E00BDF91A10BDF91C20431ABDF9180055
:102070005B1C121A521C12F0EFF806467868416891
:1020800020468847204602F0DFFC0490866604A8BC
:1020900002F044FD42F20400054202D1204612F053
:1020A00043FA2046189900F05DFA05F0BFF80BB02E
:1020B0002046BDE8F08F0000D91D00080403002071
:1020C000952900082DE9F041044694B0006800F01D
:1020D000B7F908B1D94D01E0D84D2C356068152805
:1020E0001ED00CDC0B281FD004DC00287ED0052875
:1020F0007DD12FE10E287BD01228F9D141E116289D
:1021000006D0172808D0182808D01C28F0D109E0DC
:10211000E86914B0BDE8F081286AFAE7686AF8E770
:10212000A86AF6E76869F4E720680B901C200C9019
:10213000206802F089FC0390016D0BA888470646D1
:1021400003A802F0EBFC022E0FDB95E807008DE8F8
:102150000700D4E904023346A16905F0C7FD2069F0
:102160008719A069A0EB06082CE0286804F0DFFBC3
:102170002169E8690A18521E606903F077FAA269BA
:10218000E869111A491C606903F070FAD4E9040780
:102190007F1C394603F0BAFA3946A06903F0B6FA53
:1021A000686804F0C4FB20693946401C03F0AEFAAD
:1021B000A0693946401E03F0A9FAA0692769A0F179
:1021C0000208BF1C286804F0B2FB42463946606929
:1021D00003F04CFA686804F0AAFB6069424639468D
:1021E000401C03F043FA686A022802E015E1B0E0FF
:1021F00000E10BDDA86804F09AFB61696A6A881C3B
:102200008B180146424638465B1E27E0296AB142D8
:1022100026DD6069022E074600F1020801DB374423
:1022200001E007F10207206901DB304401E000F121
:10223000020022693B460A444146A2F1010203F032
:1022400047FB022E02DBA069821B01E0A269921EFD
:10225000A069E9693B46401A4146401C03F038FB3F
:10226000022E02DB6069064401E06669B61CE7697C
:1022700028687F1E04F05BFB3A463146206903F074
:10228000CBFA3A463146A06903F0C6FAE7696868B6
:10229000BF1E04F04CFB20693A463146401C03F057
:1022A000BBFAA0693A463146401E03F0B5FAE86928
:1022B000022802DC286A022823DDA86A022802DD3F
:1022C000E1690F1A01E0E769BF1EA86804F02FFB5F
:1022D000E969022909DD20693B46421800F1020C38
:1022E00031466046521E03F0F3FA286A022808DDE0
:1022F000A269E8693B46101A3146401C921E03F061
:10230000E7FA286804F013FBD4E90620216903F0FA
:10231000ADF9686804F00BFBD4E906202169401E82
:10232000491C521E03F0A2F9A86A022811DDA16916
:102330002669E469A1F10208271AA41EB61C7F1CB5
:10234000A86804F0F4FA234642463946304603F0C2
:10235000BFFA71E0208A00B2ADF81400A18A09B278
:10236000ADF81610228B12B2ADF81820A38B1BB259
:10237000ADF81A302C69ED68CDE9005403F010F97E
:102380005AE0208A298B0844ADF81400A08AADF8E1
:102390001600208B298B401AADF81800A08BADF8E1
:1023A0001A00206802F050FB0390006FF0B1022089
:1023B00004F058FB039890F87C10C1F3C00100EBC7
:1023C0008100006C04F0B3FA0398406B04F0DEFA6D
:1023D0000398006F02F038FB03990990B1F95A2075
:1023E00005A902F0BBFF09A802F098FB03A802F0C0
:1023F00095FB21E0208AADF81400A08AADF8160004
:10240000208BADF81800A08BADF81A00A86804F076
:102410008EFA05A803F088FA0EE0206802F014FB9B
:10242000039030F85A1F41F00C01018003A802F01C
:1024300075FB206813F058F800206AE6900500202C
:1024400038B505004FF000040FD003F0D7FB284645
:1024500002F0FAFA009090F87C00000700D5012401
:10246000684602F05BFB04F0E1FE204638BD38B55B
:1024700005004FF0000411D003F0C0FB284602F025
:10248000E3FA0090C06D00218068026828469047FA
:102490000446684602F042FB04F0C8FE204638BD00
:1024A00030B587B005004FF0000413D003F0A6FB51
:1024B00001A9284600F0EBF8284602F0C5FA009082
:1024C000B0F95440684602F029FB0CB9BDF904404C
:1024D00004F0ACFE07B0204630BD70B50D460400D8
:1024E00009D003F08BFB294620461AF0F9F8BDE825
:1024F000704004F09BBE70BD2DE9FC410D46804646
:1025000003F07CFB5FEA080028D002F09DFA0190FE
:10251000C16D8C6800F022F907460198456301A857
:1025200002F0FCFA226801214046904706462268E4
:1025300003214046904705462268002140469047C7
:102540000446404600F0EFF92B46324639464046F5
:10255000009400F078F9404612F0BAFC04F066FEF0
:10256000BDE8FC817CB50D4604001DD003F046FBA0
:10257000204602F069FA0090006F0190684602F070
:10258000CDFA294601A805F03FFF58B1204602F0D8
:102590005BFA009001990167684602F0BFFA204695
:1025A00012F096FC04F042FE7CBD38B50C460500E6
:1025B00013D003F023FB284602F046FA0090B0F94E
:1025C0005A10A14204D0A0F85A40284612F080FCCC
:1025D000684602F0A3FA04F029FE38BD38B50C466F
:1025E000050015D003F00AFB284602F02DFA002260
:1025F000CDF8000000EB8201521C0C64022AF9D3D2
:10260000684602F08BFA284612F062FC04F00EFED7
:1026100038BD2DE9FC470D465FEA00094FF0000484
:1026200032D003F0EBFA484602F00EFA0190B0F90E
:102630005440A54223D000F091F880460198012132
:10264000A0F85450C06D856848462A6890470746F0
:102650002A6803214846904706462A6800214846D2
:1026600090470546484600F05EF933463A464146F3
:102670004846009500F0E7F8484612F029FC01A80A
:1026800002F04CFA04F0D2FD2046BDE8FC872DE9AB
:10269000F34F85B000270C46B846059802F0D4F9F0
:1026A0000090C06D0121856805982A689047824690
:1026B0002A6803210598904704902A68022105980A
:1026C000904703902A680021059890470646009895
:1026D00013F0FEF88346009813F001F98146009844
:1026E00090F83210890601D5B0F9588000F036F81C
:1026F00005460098C06E10B112F033F907462580E8
:102700006780A4F804A0049AABEB020006EB080271
:10271000401E2A4420813A44E280039BA9EB030235
:10272000521E6281A4F80CA020827019E681401E1E
:102730006082684602F0F2F9B4F90C000190B4F935
:102740001000029002AA01A9059800F039F801983A
:10275000A0810298208207B0BDE8F08F10B5014635
:10276000002091F83220920607D5B1F954000028D4
:1027700003D1486B03F0FEF9801C10BD70B58AB020
:102780000C46054602F060F90990C06D866809A8FC
:1027900002F0C4F9009534B1012C06D0022C0BD004
:1027A000032C04D10AE0182000E016200190716883
:1027B000684688470AB070BD1520F7E71720F5E78F
:1027C0002DE9FC4117468846044602F03DF9009089
:1027D000C16D056868468E6802F0A0F93268002174
:1027E000204690470646204611F063FF27E000BFD1
:1027F00002F02AF90190B0F900102AB2B0F90430C1
:10280000891A9A1AB0F90230A3EB2543B34210D1CA
:1028100090F82800000605D53868884209DB491E73
:10282000396006E0D8F80000904202DC521CC8F87B
:10283000002001A802F072F9204611F0DFFF040029
:10284000D6D1BDE8FC812DE9FF4F83B00E46074687
:10285000DDF8409002F0F8F80190C16D8D68FFF747
:102860007DFF044601A802F059F92A680121384683
:10287000904783462A6803213846904782462A6853
:102880000021384690470546B44207D105998B454B
:1028900004D106998A4501D14D4541D0A41B00269B
:1028A000B046384611F005FF38E002F0CDF8009050
:1028B000806A010601D5800502E0810528D5000661
:1028C000002825DB24B122461146384612F0FDFBD4
:1028D000009890F8280000060AD50698A5EB090292
:1028E000A0EB0A0004FB16013846761C12F0A1FB8F
:1028F0000098008D80050BD50599A5EB0902ABEB7F
:10290000010004FB080108F10108384612F091FBB0
:10291000684602F003F9384611F070FF0700C4D191
:1029200007B0BDE8F08F70B586B0064602F08CF8AF
:102930000590D0E91A4505A802F0F0F854EA050020
:1029400026D069463046FFF7A2FEACB1BDF906209D
:10295000BDF90410204612F03FFBBDF90A00BDF995
:102960000610421ABDF90800BDF90410521C411AA4
:102970002046491C12F004FE002D09D0BDF90600C6
:10298000BDF90210421ABDF90410284612F024FBCA
:1029900006B070BD2DE9F0430446406889B0054695
:1029A00011F04AFF814602F04FF80290D0F84880BB
:1029B000D0F88070466E02A802F0B0F820681728A0
:1029C00053D008DC0E283AD00F2811D014284CD050
:1029D00015283DD149E01E281ED01F282AD02228C4
:1029E00040D0312834D10020E06009B0BDE8F08348
:1029F0006FF070414046884503D008F0E1FC02F0DA
:102A000013FA002EF1D0D4E902122068CDE90405B2
:102A1000CDE9061204A81FE0E0680028E5D02FB138
:102A2000AF4203D0384612F0D9FCDEE7284612F058
:102A300029FDDAE72146484611F028FAD5E7E06893
:102A40004168002904DD00680928EFD00A2805D074
:102A50005EB12046C4F80490B047C6E7284612F09D
:102A600020FDC2E7C4F80C80BFE7204611F0ACFCA3
:102A7000BBE7000070B5364888B00024016841F01B
:102A800080010160016801F080010691016841F454
:102A900080710160006801A900F4807006908020B8
:102AA000012581E83100032004902A4805F08AFEC0
:102AB0002802CDE9010501A9274805F083FEFEF7AC
:102AC00091FC264EC6F8A042142006F528761BF08D
:102AD0007FFD356032201BF07BFD8DF80040012228
:102AE0006946002000F00AF901226946A42000F09E
:102AF00005F916208DF8000001226946802000F0BB
:102B0000FDF80C208DF8000001226946882000F0B5
:102B1000F5F802226946A12000F028F89DF800008F
:102B2000302803D19DF80110032908D09DF8011029
:102B3000012904D0022902D0012008B070BDC9B219
:102B400001EB002106A0FDF7FBFB0020F5E70000EC
:102B500030380240001C0240002002400000444285
:102B60004354502049443A25780D0A002DE9F0419C
:102B700015460F460446FEF701FD7020FEF7C8FC1F
:102B8000FEF748FDE0B2FEF7C3FCFEF743FDFEF79B
:102B9000F5FC7120FEF7BCFCFEF73CFD00246E1E28
:102BA00009E0B44201D0012000E00020FEF774FCEF
:102BB0003855641CE4B2AC42F3D3BDE8F041FEF7F3
:102BC00003BD00002DE9F143484F00244FF00A09EE
:102BD000387882B0401CC0B2B0FBF9F209FB120198
:102BE000434DA046387009B10A2864D2012202A9D7
:102BF0000220FFF7BBFF9DF8080001075BD000F043
:102C00000F00062857D2FF218140C84340F0C00082
:102C100085F820004FF00108002695F8201008FAEA
:102C200004F001423AD033480422694630F81400D7
:102C3000FFF79CFF95F830009DF80010C0079DF845
:102C4000010001F00F010ED000EB012105EB440063
:102C5000C1829DF802209DF8031002F00F0201EBE3
:102C60000221818110E000EB012023490988091A23
:102C700005EB440081819DF802209DF8031002F0CD
:102C80000F0201EB0221C1829DF800000821B1EB87
:102C9000101F03D005EB4400C6828681641CE4B299
:102CA000052CBAD3A9894FF0010819B9E88A08B9E7
:102CB0008DF808603E709DF80800C0060ED195F8AA
:102CC0002000010602D520F0800005E04FF6FF71DC
:102CD000A981E98200F0E00085F820003878F0282A
:102CE00001D987F800904046BDE8FE8338000020F7
:102CF00040000020B6540208601900202DE9F04180
:102D000015460E4604460027FEF738FC7020FEF7F5
:102D1000FFFBFEF77FFCE0B2FEF7FAFBFEF77AFC62
:102D2000002408E0305DFEF7F3FBFEF773FC0700BC
:102D300003D1641CE4B2AC42F4D3FEF745FC384640
:102D4000BDE8F08138B50446094D4FF0AA30009037
:102D5000A879042360436A46002109F0F5FEA879AA
:102D6000042360436A460021401C09F0EDFE38BD93
:102D7000701A00202DE9FC47254F8946064600259C
:102D800000240DF1040810E0CDF80080798870432C
:102D90008B084A46002109F06FFD7888BDF80410C1
:102DA000B1EB900F04D1641CA4B2B879A042EBD867
:102DB000B879A04202D10020BDE8FC87304609F076
:102DC0007DFB20B1294613A0FDF7BAFA16E0B9F150
:102DD000FF3F13D000200AE07A8806FB001093081A
:102DE0000022114609F086FEBDF80400401CADF833
:102DF0000400B879BDF804108842EDD86D1CADB25E
:102E0000032DBDD3314609A0FDF79AFA0120D3E77F
:102E1000701A00206572726F72206572617365208E
:102E2000626C6F636B3A25640D0A00006261642076
:102E3000626C6F636B20636865636B65643A2564DD
:102E40000D0A000038B50446104D00208DF8000032
:102E5000A879012360436A46002109F041FD9DF8ED
:102E60000000FF2801D0022038BDA879012360436B
:102E70006A460021401C09F033FD9DF80000FF2840
:102E800001D0012038BD002038BD0000701A00209C
:102E90002DE9F84F91462F4A8A461D469179B0FB9D
:102EA000F1F3B0FBF1F801FB130B404600F0B8F86A
:102EB000284907464889B84202D20120BDE8F88F68
:102EC000002428E05C4516D3ADB14A88A2EB0A0184
:102ED000A94201D28EB200E0AEB207FB004108FB6E
:102EE00000404B465246009609F068F94FF0000A40
:102EF000B144AD1B05E007FB004108FB004009F0B1
:102F000031FA30B13846FFF71DFF012000F024F8F8
:102F1000CBE7641CA4B20F498879A042D2D80D46F1
:102F2000A879A04214D1384600F028FA404609F0AA
:102F3000C5FA00206A89696908E031F81040444503
:102F400002D121F8107003E0401C80B28242F4D814
:102F50000020B3E7701A0020F8B506460021294D7D
:102F60004FF6FF7003E06A6922F81100491C6A8974
:102F70008A42F8D80020A88104461CE0A8790423DE
:102F800060436A46002109F0ABFC9DF80000FF2871
:102F90000CD1B6B1A879012360436A460021401CD8
:102FA00009F09EFC9DF80000FF280AD0214616A0DB
:102FB000FDF7C6F9641C6989A142DFD800206A695F
:102FC00016E09DF802009DF8031000EB01206989CE
:102FD000814202D9696921F81040A889401CA88162
:102FE000E8E732F810308B4201D3E88102E0401C60
:102FF0008142F6D8E889642801D20220F8BD002079
:10300000F8BD0000701A002062616420626C6F637A
:103010006B20696E6465783A25640D0A0000000033
:1030200070B5104E104C71892268491E914200D231
:10303000216000F001052946206800F017F8411CC6
:103040000AD170892168401E884207D9294620602C
:1030500000F00CF8411C01D0206070BD4FF0FF3033
:1030600070BD0000701A00207C000020F8B50D46ED
:103070000021401C0091040012D00C4F012626EACA
:103080000400A8420AD1B879611E484304236A4665
:10309000002109F025FC0098401C04D0641EEED1EC
:1030A0004FF0FF30F8BD601EF8BD0000701A002020
:1030B000F8B5254E00273C46B78113E02046FFF7C0
:1030C000C1FE70B9204609F0F9F938B121461FA0B8
:1030D000FDF736F92046FFF735FE02E0B089401CC7
:1030E000B081641C7089A042E8D8B1891BA0FDF7AB
:1030F00027F9B089642801D20120F8BDC0EB401047
:10310000642100EB4000B0FBF1F50024009710E0D3
:103110002046FFF797FE58B9B079022360436A460C
:10312000194609F011FD0098401C0090A84203D0F8
:10313000641C7089A042EBD80120FFF70DFF002826
:10314000DBD00220F8BD0000701A0020426164202C
:10315000626C6F636B3A25640D0A0000676F6F64E1
:103160005F626C6F636B6E756D3A25640D0A0000CB
:1031700010B509F0CFF900BB184C616911B10020FE
:103180001CF090FE6089410000201CF097FE6061F9
:1031900061894900FDF7FEFA606970B10120FFF70F
:1031A000DBFE60B10EA0FDF7CBF8FFF781FF90B119
:1031B00011A0FDF7C5F8022010BD012010BD6189E6
:1031C00012A0FDF7BDF8A18916A0FDF7B9F8E189B5
:1031D00019A0FDF7B5F8002010BD0000701A0020FE
:1031E000666F726D6174206E616E6420666C6173CF
:1031F000682E2E2E0D0A0000666F726D61742066B7
:1032000061696C6564210D0A00000000746F7461CF
:103210006C20626C6F636B206E756D3A25640D0ACD
:1032200000000000676F6F6420626C6F636B206E3C
:10323000756D3A25640D0A0076616C696420626CD4
:103240006F636B206E756D3A25640D0A00000000F7
:103250000549CA89824202D24FF6FF707047496918
:1032600031F8100070470000701A00202DE9FF5F50
:103270009B4615468246002679E03F4C6088B0FBAD
:10328000F5F1A079414301988319B3FBF1F0FFF701
:10329000DFFF6189814203D8012004B0BDE8F09FBF
:1032A000354C6188A479B1FBF5F26243B3FBF2F7C8
:1032B00002FB17326A43B2FBF1F300FB0437B2FBA7
:1032C000F1F001FB1028A1EB0800B0FBF5F084B28F
:1032D000ABEB0600A04200D284B204FB05F91FFA52
:1032E00089F31FFA88F15246384609F0A7F90328F6
:1032F00009D11FFA89F31FFA88F15246384609F0BE
:103300009DF9032804D004282ED068B30220C4E716
:103310004B461FFA88F152463846FFF7B9FDDFF8F1
:1033200058804FF0FF3198F80600B7FBF0F0FFF738
:1033300021FD80B998F806000021B7FBF0F0FFF7F7
:1033400019FD814698F80600B7FBF0F009F0B6F8D1
:10335000B9F1000F08D098F80600B7FBF0F0FFF7BE
:10336000F1FC0120FFF7F8FD05FB04AA26445E45A9
:1033700083D3002091E70000701A002008B5CC210B
:103380008DF80010044901236A468979484319469B
:1033900009F0DAFB08BD0000701A00202DE9FF4F8C
:1033A00085B0154600274FF0FF3B7BE0404C60881E
:1033B000A179B0FBF5F048430699CB19B3FBF0F0C7
:1033C000FFF746FF61898046414503D8012009B0D7
:1033D000BDE8F08F364A50889279B0FBF5F1514341
:1033E000B3FBF1F401FB143101FB05FABAFBF0F376
:1033F00008FB0231BAFBF0F200FB12A9A0EB0900B6
:1034000080B2B0FBF5F002910899ADF80400C91B39
:103410008CB20391844200D3044601A804FB05F654
:1034200000901FFA89F1C6F38F034FF0FF32029824
:1034300009F022FA08B10220C9E7BDF80400B0EB98
:10344000960F0FD1B3B21FFA89F1059A029809F0CD
:10345000A5FA38B94146C34520D00846FFF78EFF8C
:10346000C346D8B11248817940884143A1EB0A0094
:10347000B0FBF5F0039980B28CB2ADF80400844241
:1034800000D3044604FB05F61FFA89F13346059A7A
:103490000298FFF7FDFC08B1032098E70598274440
:1034A000304405900898874280D300208FE70000C1
:1034B000701A00202DE9F0430446C56887B0904695
:1034C0008946002003F056FA064625B1287910B146
:1034D00046F0020001E026F0020003F04BFA2069FA
:1034E000012558B1D4E902128DE8260003956388BE
:1034F0002288046841464846A0471EE0124F134BFD
:10350000214638681B68427CE068984730B9E088FB
:10351000012801D0002001E03868806BA288E38890
:10352000A1680095CDE90410CDE9023201956388C8
:1035300022884146484607F009F807B03046BDE802
:10354000F04303F017BA00003802002030020020D8
:103550001CB50024019401AC009400F0E7F81CBDF8
:103560002DE9FF4F83B0814606988A46A0EB0A08F2
:10357000109E00200090A2EB09043568934654EA9F
:10358000080018D02046FDF7A7FB07464046FDF788
:10359000A3FB87420BDA2046444680464846D14684
:1035A00082465846DDF818B0069001200090002CA5
:1035B00007DD204606E007B04846BDE8F04F00F0C2
:1035C0003BB96042A0420AD04846D9466442C8F19D
:1035D000000883464FF0FF37DDF818A000E0012710
:1035E0005148B8F1000F11D004EBD4714FEA610BD0
:1035F00001DACBF1000B4C480068807E88B3002FC5
:1036000002DA30682044306000257BE00099002910
:10361000016821D0897E11B10027804615E007B0EE
:103620005A4649465046BDE8F04F07F055B928467E
:103630006D1C19F031F938B9D8F8000009EB070111
:10364000406E4268504690477F1CA742EFDD6D1EDA
:10365000356007B0BDE8F08F8A7E1AB1002780463A
:1036600017E019E0486E5A465146036807B04846CD
:10367000BDE8F04F184728466D1C19F00DF938B910
:10368000D8F8001009EB0700496E4A685146904788
:103690007F1CA742EFDDDAE700250FE008FB05B04D
:1036A00090FBF4F101EB0A00009951B11E4A09EBBD
:1036B00005011268526E526890476D1CA542EDDDFF
:1036C000C7E7194909EB05030968496E4A680146CD
:1036D0001846F1E708FB05B090FBF4F101EB0A0096
:1036E000019030683844306019F0D6F848B9009835
:1036F00090B10D4809EB05010068406E42680198E1
:1037000090476D1CA542E5DD3068002F01DA2044AA
:103710003060C01B30609CE7034909EB0500096875
:10372000496E4A680199EBE7380200202DE9FF470E
:103730000F4640491646804609680C981D460A7E89
:10374000012A1CD0A8EB0600791B50EA01031CD00B
:10375000A2F101091AF0FAFA00F58060824604F03D
:1037600042FF00FB09F4504604F042FF00FB09F160
:10377000002C0CDAC4F50070801240420AE0009080
:10378000324639464046FFF7EBFEBDE8FF8704F5B9
:103790000074A012002904DAC1F5007189124C42AC
:1037A00002E001F500718C12002804DD411C01EBE0
:1037B000D171491003E000EBD0714910401E00EBBD
:1037C000D0704210002C04DD601C00EBD070401063
:1037D00003E004EBD4704010641E04EBD47308EBD8
:1037E0000104ADF800403C18ADF80240A8EB02041B
:1037F0005B10B21AADF80440ADF808203144FC1A51
:10380000EA1AADF80C102844ADF80A20ADF80E0005
:103810000023ADF806401A460421684600F07AF805
:103820003946404615F090FE2946304615F08CFE8C
:10383000ABE7000038020020064A13681A7E012A0E
:1038400005D0521E02EBD272521000F005B85A6E2B
:1038500052681047380200202DE9F05F064688467E
:1038600040F2C32002FB00F14FF47A7091FBF0F7B5
:1038700002FB02F102EBD27001EB600B1446B118AF
:10388000234A301B7F1C1268526E13680A46414659
:103890009847012538E000BF05FB05F004FB040153
:1038A00059451CDDBC4219DD194B06EB050AA6EB98
:1038B00005091B68AAF1010208EB04015B6E09F11E
:1038C00001001B689847124BAAF10102A8EB040102
:1038D0001B6809F101005B6E1B689847641E0C4B66
:1038E0003219301B1B68924608EB05015B6E81465E
:1038F0001B689847064B5246A8EB05011B684846D3
:103900005B6E1B6898476D1CBD42C5DDBDE8F09F2E
:10391000380200202DE9FF4F43F6FF740F46664240
:1039200083B09B46814600210BE000BF09EB81007C
:10393000B0F90200A04200DA0446B04200DD0646BB
:10394000491CB942F2DB67480068406900280DD085
:10395000B0F906101A46A1EB0B01B14200DA0E468F
:10396000B0F90200801AA04200DD0446B4E0DFF89E
:1039700078A100200546CAF8000088E0781E85423C
:1039800001DA6B1C00E0002309EB850C09EB8302D4
:10399000BCF90200B2F90210A04244D1A14215D1F3
:1039A00039F92330059A39F9251003EB020C4D4AF9
:1039B00005981268084404EB0B01526E60451368C9
:1039C00001DA62462AE00246604627E02846A4461D
:1039D0004FF000087A1E0BE008B1401E00E0781E90
:1039E00009EB8003B3F90230634504D108F1010803
:1039F0009045F1DB2346A34248D01A1B39F9250034
:103A0000A1EB040C059B92EA0C0F09D4354A18442B
:103A100004EB0B011268526E13680246984735E0BA
:103A200012F0C8FB32E0A14230D001DBA04203DD3E
:103A3000A0422BDBA14229DCE04688420ADC034697
:103A4000A04223DC0846A14220DBB8F900C0B2F94D
:103A5000001008E00B46A14218DCA04216DBB2F9C8
:103A600000C0B8F90010E21AA1EB0C015143002983
:103A7000A0EB030202DD01EB620102E0A1EB6201B7
:103A8000491CC01A91FBF0F06044C9E76D1CBD42AF
:103A9000FFF674AF0598009004EB0B000190002036
:103AA0008046054613E01149B8F1000F31F915A021
:103AB00009D0009901EB0A0208440A490968496ED5
:103AC0000B680199984788F0010850466D1C06491B
:103AD00009688D42E7DB641CB4427FF748AF07B04A
:103AE000BDE8F08F3802002038060020B80B012016
:103AF00010B5002002F010FF6FF07F4002F017FFBA
:103B0000012002F091FF002002F09CFF002002F053
:103B1000A9FF002002F02EFF0448006802F036FFE3
:103B2000BDE81040002002F051BF00003402002028
:103B300033B583B004001BD002F060F8204600F0DB
:103B400083FF0190456E01A800F0E8FF049800F0A3
:103B50007BFF00908460684600F0E0FF042204A927
:103B6000284600F0FFFF204611F0B2F903F05EFB9B
:103B700005B030BD33B583B004001BD002F03EF871
:103B8000204600F061FF0190856E01A800F0C6FF9D
:103B9000049800F059FF00908460684600F0BEFF72
:103BA000042204A9284600F0DDFF204611F090F918
:103BB00003F03CFB05B030BD2DE9F0410446002583
:103BC000D4E90007B0F5407F00D1012521463846F1
:103BD00010F05CF9064615B1384617F08EF9002E44
:103BE0002FD02068052806D00B280ED00F2806D02D
:103BF000262821D10EE0384617F07FF91CE0384620
:103C0000E168BDE8F04117F005BD3846BDE8F04178
:103C100017F0B4BBE06805280ED1384610F046FE18
:103C2000A168884205D0384610F030FEA16888426D
:103C300002D1606818F022F82046BDE8F04110F08B
:103C4000C3BBBDE8F081F0B585B0B0F90850468A35
:103C500084690296CDE903540027CDE90017B0F935
:103C60000C10B0F91050B0F90E40B0F90A00194428
:103C700010442B46224600F003F805B0F0BD0000CA
:103C80002DE9F04F85B09846DDE90E5691468A46FB
:103C90008346109F129C01F0B1FF18486C34CDE9A7
:103CA0000204CDE9005643464A465146584610F0B4
:103CB000D3FA04001BD000F092FF054600F08FFFFE
:103CC0000646204600F0C0FE0490C0E919560022C6
:103CD000119910F003FA0498302209493430FCF7A6
:103CE0001FFD0498A0F8787004A800F017FF03F0F7
:103CF0009DFA05B02046BDE8F08F0000B93B0008F2
:103D00002C03002013B582B0044601F077FF204653
:103D100000F09AFE009060B1406A00F095FE014606
:103D20000190022303AA009800F045F901A800F0D1
:103D3000F5FE684600F0F2FE03F078FA1FBD0000C1
:103D40002DE9F04385B01D4690460F46814601F0AF
:103D500055FF2C2000F085FD060024D0780000F0EF
:103D600080FD04000ED0B8F1000F0BD055B12046F5
:103D700000F06AFE6A0041460090FCF74AFC684683
:103D800000F0CCFE304600F05FFE0A49029000F1E0
:103D90000C02446282E8A2020749016007494160BF
:103DA00002A800F0BBFE03F041FA05B03046BDE8C2
:103DB000F0830000F5AD0108BFB701080DB401089C
:103DC0002DE9F843984615460E46074601F016FFC2
:103DD000302000F046FD040015D000F035FE0090C4
:103DE000C0E9057685840A4AB7EE000AC0F81C804F
:103DF00080ED0A0AD2E90012C0E903120549016008
:103E0000684600F08BFE03F011FA2046BDE8F88307
:103E10005C03002097B8010810B504002DED028B5B
:103E200082B09FED118AF0EE408A16D001F0E6FED6
:103E3000204600F009FE009090ED0A8AB4EE688AF0
:103E4000F1EE10FA04D0C0ED0A8A806811F040F853
:103E5000684600F063FE03F0E9F902B0B0EE480AEC
:103E6000BDEC028B10BD000000000000F8B50D464F
:103E700006004FF0000411D001F0C0FE304600F003
:103E8000E3FD0090046AAC4203D00562806811F043
:103E90001FF8684600F042FE03F0C8F92046F8BD5E
:103EA000F8B50D4606004FF0000411D001F0A6FE53
:103EB000304600F0C9FD0090C468AC4203D0C56034
:103EC000806811F005F8684600F028FE03F0AEF9AE
:103ED0002046F8BD2DE9F8431D46DDF82080164642
:103EE0000F46040015D001F089FE204600F0ACFD1D
:103EF0000090C0F860804765C0E91665684600F02C
:103F00000DFE204616F0F9FF204610F0E1FF03F009
:103F10008DF9BDE8F883F8B50D4606004FF00004B2
:103F200011D001F06BFE304600F08EFD0090446C25
:103F3000AC4203D04564304610F0CAFF684600F03A
:103F4000EDFD03F073F92046F8BDF8B50D46060007
:103F50004FF0000411D001F051FE304600F074FD26
:103F60000090846CAC4203D08564304610F0B0FF02
:103F7000684600F0D3FD03F059F92046F8BDF8B5C6
:103F80000D4606004FF0000413D001F037FE304616
:103F900000F05AFD009090F86C40AC4204D080F8DC
:103FA0006C50304610F094FF684600F0B7FD03F007
:103FB0003DF92046F8BD2DE9F041044680681D46D4
:103FC00017460E46002826D0D4E9040290420ED1AE
:103FD000521E6A4371193046FCF760FB20692A467D
:103FE000401E05FB00603946FCF758FB0EE005FB60
:103FF0000013401C20612A4639461846FCF74EFB48
:10400000E16819B12046BDE8F0410847A068BDE865
:10401000F04100F002B8BDE8F08110B58AB0044666
:1040200000F012FD09A904AACDE9002105AB089012
:1040300006AA07A916F069FB08A800F06FFD02A9FF
:10404000204610F089FBBDF8080007990844ADF838
:104050000800BDF80A0006990844ADF80A00BDF84A
:104060000C000599401AADF80C00BDF80E0004993B
:10407000401AADF80E0002A9204610F0E9FE0AB081
:1040800010BD00002DE9F0433F4889B000240168CD
:1040900041F080010160016801F080010791016831
:1040A00041F4807101600068802600F48070079000
:1040B00001AA012503270096DFF8D09082E8B0001E
:1040C0006946484604F07EFB2802CDE900056946B2
:1040D0002F4804F077FBFDF785F9DFF8B880C8F8C2
:1040E000A0420A201AF074FAC8F8A0520A201AF066
:1040F0006FFACDE90064CDE902476946484604F00D
:1041000061FB64201AF064FA042205A948F2401009
:1041100000F058F88DF8184005A91FA0FCF710F919
:1041200020A105A8FCF780FB18B1012009B0BDE86B
:10413000F08302208DF8140048F24005012205A901
:10414000284600F083F9012205A9E81D00F03AF89D
:104150009DF8141060290BD214A0FCF7F1F8184850
:104160008088A0F5AA41103902D1012000F048F959
:104170000A201AF02DFA8DF81440012205A92846CC
:1041800000F064F90020D1E730380240001C024002
:1041900000200240000044424354502049443A2544
:1041A000730D0A0039313437000000004465666140
:1041B000756C74205665723A25640D0A0000000083
:1041C000601900202DE9F04115460F460446FDF721
:1041D000D5F92820FDF79CF9FDF71CFA200AFDF718
:1041E00097F9FDF717FAE0B2FDF792F9FDF712FA29
:1041F000FDF7C4F92920FDF78BF9FDF70BFA002430
:104200006E1E09E0B44201D0012000E00020FDF75D
:1042100043F93855641CE4B2AC42F3D3BDE8F04135
:10422000FDF7D2B92DE9F14F714E00244FF00A0B82
:10423000307882B0401CC0B2B0FBFBF20BFB120125
:104240006C4DA146307009B10A287BD248F24E1756
:10425000012202A93846FFF7B5FF9DF808004FF08C
:10426000000801060AD500F00F00062806D28DF8D6
:104270000480012201A9384600F0E8F89DF8080002
:1042800001075FD000F00F0106295BD2FF208840B4
:104290008DF80400C04395F820A040F0C00085F8D8
:1042A0002000A889A882E88A534FE8834FF00109CB
:1042B00095F8201009FA04F0014256D04F48042224
:1042C000694630F81400FFF77DFFB888A0F5AA41D1
:1042D000103904D0A0F5864142391FD045E095F849
:1042E00030009DF80110C0079DF8000000EB01218F
:1042F00005EB440009D0C1829DF802109DF803200F
:1043000001EB0221C1F548712EE081819DF8021078
:104310009DF8032001EB0221C18226E095F83000D0
:10432000C00710D09DF802009DF8031000EB01219A
:1043300005EB4400C1829DF800109DF8012001EBBF
:10434000022111E02CE09DF800009DF8011000EB27
:10435000012105EB4400C1829DF802109DF8032065
:1043600001EB0221C1F588718181641CE4B2052C46
:104370009ED3A9893A884FF001092846914203D873
:10438000C18A7A88914209D99DF8081001F00F017D
:1043900001290CD9C1898181018BE98286F80080CD
:1043A0009DF8080000F08F0080280AD018E0818A6C
:1043B0008181C18BC18280218DF8081085F820A0F1
:1043C000EEE795F82000010602D520F0800005E018
:1043D0004FF6FF71A981E98200F0E00085F8200026
:1043E0003078F02801D986F800B04846BDE8FE8F45
:1043F0003900002040000020601900207855020894
:1044000008B500218DF800108DF801000E489DF8C8
:104410000020435C491C1A44C9B28DF80020B82919
:10442000F5D3D0B2C043401C8DF80000B822064935
:1044300048F2470000F00AF80222694648F2FF00FD
:1044400000F004F8002008BDC05402082DE9F04136
:1044500015460E4604460027FDF790F82820FDF784
:1044600057F8FDF7D7F8200AFDF752F8FDF7D2F814
:10447000E0B2FDF74DF8FDF7CDF8002408E0305D1F
:10448000FDF746F8FDF7C6F8070003D1641CE4B257
:10449000AC42F4D3FDF798F83846BDE8F08100004F
:1044A0002DE9F04FDFF828B191B04FF0FF35DBF880
:1044B0000030B3F922100691DE69B3F92490F46953
:1044C000A189814206D8E289824203D3471AD4F8EF
:1044D000008012E0D4E9018100296FD00A8882426D
:1044E0006CD84D88854269D3801A82B2486800EB47
:1044F0008200B0F90070B0F90250781C5ED0307EB6
:10450000A17C10FB01FA217CCDE90701B3F92A60F7
:10451000304607F021F8C0B20E90DBF8000007FB30
:104520000A81A37C826B0127CDE90412CDE90273D5
:10453000C069089AC17E807ECDE90001DDE90603ED
:10454000494606F003F8681C18D046F0020007F050
:1045500003F8DBF80000A37C05FB0A81826BCDE940
:104560000273CDE90412C069089AC17E807ECDE94C
:104570000001DDE90603494605F0E8FFDBF800002D
:104580005D46C069417E007E814214D9022E12D060
:1045900086F0040006F0E0FF2868C069027EC37E52
:1045A00012FB0391437E857E089A06984B4412FBCA
:1045B000050206F0C1FA0E9806F0CEFFDBF8000007
:1045C000627C418C1144418411B0BDE8F08F000041
:1045D0003802002004480068C069C06909B1027C43
:1045E0000A60407C704700003802002002200880EA
:1045F0007047C06982898A4202D8C2898A4210D231
:10460000806880B102888A420DD843888B420AD3E1
:10461000406800EB8100A0EB8200B0F900000028A8
:1046200001DB012070470020704700002DE9F043B6
:10463000304C034687B020681946B0F92A60C0693B
:10464000C06900F086F8002850D041680088181A28
:1046500001EBC0053046AF7806F07EFF814620684A
:104660006A680123816BCDE90237CDE90421C16974
:10467000CB7E8A7ECDE900230B7EB0F924102A7808
:10468000B0F9220005F062FF2068C069417E027E19
:1046900091421FD9C07E11FB00F812FB00F7022ED9
:1046A00018D001F0DCF9064601F0A2F902F03FF95A
:1046B00021682A78CB69B1F92200DB7E12FB030264
:1046C000B1F9241001EB0803394406F035FA3046FD
:1046D00002F02DF9484606F03FFF20686A78C3696A
:1046E000B0F922109B7E12FB0311418407B0BDE894
:1046F000F08300003802002030B50F4C05460B4611
:1047000020682946C069C06900F023F8002812D04B
:104710004168008824682A1A0120E46900EBC2007D
:10472000085CA47E10FB04F0002B04D011F83210BA
:1047300011FB04F1196030BD38020020012008800F
:10474000704700B5C06900F004F8002800D00120CF
:1047500000BD06E002888A4202D842888A4202D21C
:1047600080680028F6D1704770B50025124C19E01A
:1047700020691249C5EB051600EBC60070220968D6
:10478000001DFBF7CDFF2069002140F8361000EB3B
:10479000C60000F10C018161011D0A1DC0E90F1264
:1047A0006D1C4164A0688542E2DB01F027FABDE898
:1047B000704002F03BBD0000A00400203802002041
:1047C00070B50F490D480860084603F015FE0C4C03
:1047D000143CA068C0EB0010C500284600F0A6F805
:1047E0002A460021206103F080FE4FF0FF30206058
:1047F00002F082FDBDE8704016F03AB829B5010814
:10480000B4040020F8B50C0005460FD001F0F6F90D
:10481000204600F017F8060010D000F015F92246E7
:1048200000902DB12946FBF7F4FE04E00020F8BD0E
:10483000002103F05AFE684600F070F902F0F6FC21
:104840003046F8BD10B5040009D001F0D7F9204674
:1048500011F05EFD044602F0E9FC204610BD002088
:1048600010BD38B5054601F0C9F92846FFF7EAFF43
:10487000040009D000F0E8F82A460021009003F077
:1048800034FE684600F04AF902F0D0FC204638BDFC
:10489000024A106021F00300506070474C0A01206A
:1048A00010B5040016D001F0A9F90B48406B10F8C0
:1048B000341059B1022909D2042101EBC401415835
:1048C000486811F093FC204617F0A2FDBDE81040A7
:1048D00002F0ACBC10BD00008C090120002805D0FE
:1048E000034AD16B016001B14860D063704700009A
:1048F0008C09012010B5044601F080F92068FFF70B
:10490000CFFF00202060BDE8104002F08FBC000007
:1049100070B50D460646002405E000BF06EB840096
:10492000FFF7E8FF641CAC42F8DB70BD2DE9F041F5
:10493000044616F0CBF92848E41C24F00305016C6A
:104940002D1DA94200D90D46C46B13E054F8042C68
:10495000AA420ED184B1216809B162684A606168D7
:1049600009B122680A60C26BA24231D12168C163D9
:104970002EE02468002CE9D18046816BC0680F18B6
:1049800057F8040C3E1A306838B1002017F0F4FDD7
:1049900057F8040C3E1A3068D0B97068A84217DB8B
:1049A0003044441B3046241D17F09EFDD8F80C10EF
:1049B000491BC8F80C10D8F814102944C8F8141072
:1049C0007068401B02D0314611F010FC44F8045CC2
:1049D0002046BDE8F08100008C09012010B50024BC
:1049E00016F074F90C490F2001EBC002526C1AB199
:1049F00001EBC000406C08E0401EF5D508E04168BE
:104A0000A14200D90C46806810B180680028F6D118
:104A1000A4F10C0010BD00008C090120002138B168
:104A20000449042202EBC000496B085841680C3964
:104A3000084670478C09012002488169491C816140
:104A4000704700008C0901200549CA69521CCA61DF
:104A5000496B01EBC0010A78521C0A7000F076B86D
:104A60008C0901207CB506460C460846FFF7EAFE95
:104A7000050020D0FEB13046FFF7D0FFA04200DA9B
:104A8000044601F0BBF82846FFF7DEFF00903046F1
:104A9000FFF7DAFF0146019022460098FBF7B9FDC7
:104AA000684600F03BF801A800F038F83046FFF700
:104AB000F7FE02F0BBFB28467CBD000010B501F0FC
:104AC0009DF8FFF78BFF64220849B0F5800F04D9E9
:104AD00090FBF2F4086A444303E0096A4143B1FBE6
:104AE000F2F402F0A3FB204610BD00008C09012067
:104AF0000549102805D94A68B0EB520F02D3500877
:104B000000E01020886070474C0A0120024881694B
:104B1000491E8161704700008C0901200A49026822
:104B20004B6B52F8082C03EBC2021378022B03D311
:104B3000CB690BB15B1ECB611178491E117000214E
:104B400001600846704700008C090120002806D04B
:104B50000349042202EBC000496B08580830704733
:104B60008C0901202DE9FC414FF000060B465FEA5D
:104B7000000834462BD032B111461846FFF742FEEA
:104B8000060000D101244046FFF75EFF0090078831
:104B900045686846FFF7C2FFCCB9B9002846091D31
:104BA000FFF760FF050015D0FFF74EFF019040F8BA
:104BB000276001A8FFF7B2FF4046FFF745FF0090CE
:104BC00045600188491C01806846FFF7A7FF204621
:104BD000BDE8FC813046FFF763FE0124F7E70820BB
:104BE000FFF73FBE7CB5050023D0FFF72DFF0090F7
:104BF0004068C0B1FFF728FF0024019005E001984C
:104C000000EB8400FFF776FE641C00980088A04249
:104C1000F5DC01A8FFF782FF0098001DFFF76AFE90
:104C20000099002008806846FFF778FF2846FFF7C4
:104C300037FE7CBD38B5002430B1FFF705FF00908A
:104C400004886846FFF76AFF204638BD38B50D4630
:104C5000002448B1FFF7F8FE2946009000F016F84E
:104C600004466846FFF75AFF204638BD38B50D4662
:104C7000002448B1FFF7E8FE2946009000F018F83C
:104C800004466846FFF74AFF204638BD38B50D4652
:104C900001880024A94209D9406838B1FFF7D4FE41
:104CA000009050F825406846FFF738FF204638BD91
:104CB00010B50024FFF7EAFF10B1FFF7C5FE044668
:104CC000204610BDF0B52D271C68B0F1004F08D06C
:104CD000002600280DDA651C1D6027704042012463
:104CE00008E0651C01261D606FF000402770491E1A
:104CF00001E00024091BC9B22AB3491EC9B222E04F
:104D00000C46491EC9B2944205D1124C27781C6842
:104D1000651C1D602770104C54F8215090FBF5F471
:104D2000E4B20A2C11D804FB150011B90EB1641CB1
:104D3000E4B20A2C02D10124491CC9B21D686F1CBF
:104D400030341F602C700029DAD1196800200870F7
:104D5000F0BD00002C0200202CD80B0810B5002854
:104D600007DD0A682B24531C0B60147009680022AD
:104D70000A7010BD70B514460D46064600F03EFFA1
:104D8000204600F079FE0300174804EB840109D0A7
:104D900050F8210041688068711A2A1A184601F0FB
:104DA00005FE1CE000EB8104A268B24201D00122A2
:104DB00000E00022E368AB4201D0012300E00023C1
:104DC0001A430CD0236943B150F821008168406830
:104DD0006A1A311A184601F01FFDC4E90265BDE8E0
:104DE000704002F023BA0000900B012010B5C2B24F
:104DF000CBB2D21A00D5524293B25B43C0F3072222
:104E0000C1F30724121B00D55242000C92B2A0EB52
:104E1000114002FB023200B2002801DA404200B227
:104E200080B200FB002010BD10B50021084600F044
:104E3000B7FE43F6FF725042BDE8104013460146EC
:104E4000AFF300802DE9FC411C4615460E4607468F
:104E500000F0D4FE042006F07FFB80461248C068B4
:104E6000C16C006D0F4406440D440444ADF800705D
:104E7000ADF80450ADF80260ADF80640684610F099
:104E800035FD07E023462A463146384605F054FEF4
:104E900010F0E0FC0028F5D1404606F05DFB02F082
:104EA000C5F9BDE8FC8100002C0200202DE9F84383
:104EB0001C00DDE9089816460F46054602D10FF0A2
:104EC000D1FB044600962E6843464A4621462846B2
:104ED000B047060039D00FF0BAFB8146698A3046E8
:104EE0000FF068F8304610F07FFB484610F07CFB6E
:104EF0004FF000080CE000BFCDF8008055F81CCF43
:104F000000231A4649462846E04700B310F06CFBE0
:104F10007F1E002FF0DC1D21484610F0AAF9601C0E
:104F200012D000F06BFE0FF0E1FB30B1FFF70EFE88
:104F30008469B44201D02000F8D1B44202D0304696
:104F400010F0A0FA02F072F93046BDE8F88330465E
:104F50000FF072FA0020F8E72DE9F0411C461646E2
:104F60000D460746022B02DB0020BDE8F0811C2025
:104F7000FFF7DCFC0028F8D00DB105610AE0094A12
:104F800052F8241009B905E011460A68002AFBD13D
:104F90000969016184618682002101604160C0E984
:104FA0000217E2E75002002070B51D46FFF7D4FF5C
:104FB000040009D000F00EF8E068006820B903484A
:104FC000006800EB85008465204670BD3802002033
:104FD000FFF784BC70B590B38269022A30DA1E4CA8
:104FE00054F8221019B944F8220032E019464B68EF
:104FF000002BFBD106E0CB68C5681B682D68AB426F
:1050000003DD09680029F6D11AE0C1B1CB68C66892
:105010001B683668B3420CD1838A012B05D008E0A7
:105020001946DB681B68AB4203DB0B68002BF7D12A
:1050300029B14B6833B118604A68426004E0FFE769
:10504000012070BD44F822004860884200D1002150
:105050000160002070BD00005002002010B503E088
:105060000468FFF7B7FF20460028F9D110BD18F0FB
:10507000BBB800002DE9F0410026DFF834800D4F69
:10508000354600BF58F8254009E0E0680068385C04
:1050900020B1204618F0A8F8266026462468002C87
:1050A000F3D16D1C022DEDDB3046BDE8F081000030
:1050B00050020020187A0B08022801DB00207047FC
:1050C000054A52F8200004E0C26812688A42F6D00D
:1050D00000680028F8D1704750020020022801DB48
:1050E00000207047054951F8200004E0C1680968B4
:1050F0000029F6D000680028F8D17047500200203F
:10510000F8B516460F4605004FF0000414D00C20E9
:10511000FFF7A7FB04000FD000F070FD2046FFF75B
:1051200093FC06490090C0E9001507814681684656
:10513000FFF7F4FC02F07AF82046F8BD04D80B081B
:10514000F8B5074615460E460C20FFF78AFB04000B
:105150000FD000F053FD2046FFF776FC0649009083
:10516000C0E90017068145816846FFF7D7FC02F0C9
:105170005DF82046F8BD000010E10B082DE9F8436A
:105180001D461646884604000CD0FFF75DFC0090D3
:10519000006807686846FFF7C1FC2B463246414667
:1051A0002046B847BDE8F8832DE9F041044602F0F7
:1051B0008DF806191EE000BF00F068FB052F00DD2A
:1051C000052700F01BFD11480568FFF735FC2C0092
:1051D00017D000BF02F02AF8641EFBD1384602F057
:1051E00059F81DB100F00AFD6D1EFBD1FFF78EFCD2
:1051F00002F01CF802F06AF8371A002FDCDCBDE878
:10520000F081384602F046F8F0E70000AC040020D8
:105210001FB503ABCDF80CD0FFF754FD684600F086
:1052200019F81FBD002111F083BC7FB50C4615464F
:10523000CDF80CD003A9FFF791FD002801DD641E15
:10524000E4B203AB2A462146FFF73CFD684600F076
:1052500001F87FBD2DE9FC4706005FD000F0CEFCD1
:1052600000F022FC3C4C81462068B0F9228000F01E
:1052700063FC216807468A8CD01B888441E000BF0C
:1052800047F6FF71304602F02FFF82460146304656
:1052900002F000FF2168054691F82C0000F00300A1
:1052A000012841D002283BD000204A8C101A4884A3
:1052B000ADF800006A1E1044ADF80400888CADF80B
:1052C0000200A9F101010844ADF806006A46514602
:1052D000304602F0EBF92168BDF80200888451469F
:1052E000304601F091FE064430780A281ED00D2881
:1052F0001CD0BDF80000216828444884307818B1DB
:10530000761C30780028BBD12068818C3944818498
:10531000818D21F00301818501F088FFBDE8FC87C4
:1053200005EBD5704010C0E72846BEE7206890F82E
:105330002C1001F0030101290BD0022909D0018CA6
:10534000418431780A29D9D1828C02EB0901818408
:10535000D4E7A0F82280F4E73802002047F6FF7374
:10536000AFF300802DE9FC411F4690460D46060034
:105370004FF000041AD000F041FC65B1284610F04F
:1053800023F9040007D002462946684602F00BFFC5
:10539000684610F019F93B4642462946304602F06D
:1053A000DDF9204610F010F901F040FFBDE8FC8166
:1053B0002DE9FF4F87B09046894607007DD000F069
:1053C0001DFCD9F80040D9F8045021B228B2401A87
:1053D000401C029000F068FB064618F00C0F1ED02F
:1053E00038460A9A029901F02BFF08F00C010429B3
:1053F00004D0082902D00C2911D104E0291400FBA3
:105400001610401C09E02114C1EB254200FB1620B8
:10541000401C00EBD07001EB600060F31F44484675
:1054200010F0D2F85FEA000B09D00246494604A802
:10543000CDE9044502F0B7FE04A810F0C5F8A6F1C6
:10544000010A38460A9A029903F01EF803900AEB03
:10545000244060F31F45CDE900453846039902F02A
:1054600019FE18F003010ED001292CD002290ED10B
:10547000B9F90420B9F90010521A101A00EBD070D3
:1054800001EB600001E0B9F80000ADF800006A46E9
:105490003846039902F00AF938460A9A029902F04E
:1054A000E9FF074406EB244060F31F4438780028E6
:1054B000C7D1584610F088F800E001E001F0B6FED0
:1054C0000BB0BDE8F08FB9F80410081A401CDCE7F7
:1054D0007CB514460D46064600F090FB1148006866
:1054E000C16C006D0D4404443188681E0844ADF859
:1054F0000400ADF800507188601E0844ADF8060045
:10550000ADF80240684610F0F1F906E0224629465F
:105510003046FDF7CFFF10F09DF90028F6D101F0DD
:1055200085FE7CBD380200202DE9F04F87B09B46F8
:10553000DDE9109892460C46054600F05FFB1648E0
:105540000168C86C096D47190E1900EB0A0501EBDB
:105550000B04ADF81070ADF81450ADF81260ADF852
:10556000164004A810F0C2F988B1DFF830B04FF04F
:10557000000ACDE90098CDE902BA2B462246394609
:10558000304613F0E9FC10F065F90028F1D101F084
:105590004DFE07B0BDE8F08F38020020D9A8000802
:1055A0002DE9F04F87B09B46DDE9109892460C46F6
:1055B000054600F023FB16480168C86C096D4719C1
:1055C0000E1900EB0A0501EB0B04ADF81070ADF8F5
:1055D0001450ADF81260ADF8164004A810F086F92A
:1055E00088B1DFF830B04FF0010ACDE90098CDE97D
:1055F00002BA23462A463146384613F0ADFC10F075
:1056000029F90028F1D101F011FE07B0BDE8F08FB3
:105610003802002051A700082DE9FE4F9846DDE929
:105620000D6514468A4683460C9F00F0E7FA0E4843
:105630000068C16C01EB0409016D002001EB080456
:1056400010F054F90AE00097CDE9016523464A4677
:105650005146584613F040FD10F0FCF80028F2D1F6
:10566000BDE8FE4F01F0E2BD380200202DE9FC410B
:1056700014460D46064600F0C1FA114F3968C86C51
:10568000096D054404440E44ADF80050ADF80440E3
:10569000ADF80260ADF80660684610F027F908E042
:1056A000386822463146406E03682846984710F015
:1056B000D1F80028F4D101F0B9FDBDE8FC8100006B
:1056C000380200202DE9F0411C4615460E460746DB
:1056D00000F094FA0C480168C86C096D0744054451
:1056E0000E440C44002010F001F907E023462A463E
:1056F00031463846FDF72CFF10F0ACF80028F5D104
:10570000BDE8F04101F092BD380200207CB50C46A6
:10571000064600F073FA0F4D2868C16C006D0E4408
:105720000444ADF80460ADF80060ADF80640ADF893
:105730000240684610F0DAF807E028682146406E1B
:1057400042683046904710F085F80028F5D101F006
:105750006DFD7CBD380200202DE9FC411C4616463B
:105760000D46074600F04AFA1A480168087ECA6CDE
:10577000096D17440D440C44401E391A1644ADF807
:1057800000103118ADF80410291A2044ADF80600B5
:10579000ADF80210684610F0A9F815E03246294627
:1057A000384604F0D5FF32462146384604F0D0FF93
:1057B000621E691C384605F08FF8621E691C30466F
:1057C00005F08AF810F046F80028E7D101F02EFD28
:1057D000BDE8FC813802002070B58EB015460E463B
:1057E000044600F00BFA214606A802F0D5FDBDF8EC
:1057F0001A30642B0CD1002000900AAB01AA21467C
:1058000006A801F035FF2A46314601A8FFF760FEE1
:1058100001F00CFD0EB070BD7CB514460D46064679
:1058200000F0ECF90F480068C16C006D0E440544AF
:105830000444ADF80060ADF80460ADF80250ADF876
:105840000640684610F052F806E0224629463046E7
:1058500005F042F80FF0FEFF0028F6D101F0E6FC5B
:105860007CBD00003802002070B50C46054600F0F3
:105870000DF910B10121C0E9001400F0BFF928466C
:105880000FF06AFFBDE8704001F0D0BC10B50024F5
:1058900000E0012400F004F80028FAD1204610BDF1
:1058A000094810B50068002410B1804700B10124F8
:1058B0000EF04CFE00B101240448006810B180478E
:1058C00000B10124204610BD5C02002058020020D7
:1058D0002DE9FC411C4615460E46074600F08EF9A0
:1058E00010480068C16C006D0F4406440D44044428
:1058F000ADF80070ADF80450ADF80260ADF80640A8
:1059000068460FF0F3FF07E023462A463146384643
:1059100005F012F90FF09EFF0028F5D101F086FC8A
:10592000BDE8FC8138020020B0F90630B0F904204F
:10593000B0F90210B0F90000FFF7CABF08B50B4676
:10594000002805D0009281888268C08800F001F8A4
:1059500008BD10B50828029C30D008DC04FB01F417
:1059600001280AD0022813D0042804D11CE01028F2
:1059700028D020282CD0002010BD04EBD30003F049
:105980000701105CC1F10701C84000F0010010BD23
:1059900004EB93000621105C01EA4301C1F106010A
:1059A000C84000F0030010BD04EB5300D907105CA1
:1059B00002D000F00F0010BD000910BD04FB013043
:1059C000105C10BD481004FB003032F8100010BD10
:1059D000881004FB003052F8200010BD034951F834
:1059E0002000C1688A6A0821104700005002002088
:1059F00010B500F003F905F0CFF805F0B7F904464B
:105A000001F014FC204610BD10B5044600F0F6F875
:105A1000054800210068C069426820469047044656
:105A200001F004FC204610BD3802002070B50C4681
:105A3000054600F0E3F8064821460068C069426860
:105A400028469047044601F0F1FB204670BD000057
:105A500038020020002801D00EF0D6BD704710B5E6
:105A600000F0CCF805F0A0F805F080F9044601F04C
:105A7000DDFB204610BD00000021022802D20249B1
:105A800051F82010084670477C0400201FB5002103
:105A90000191029103912A21009169460FF0DAFBEE
:105AA000039804B010BD000010B500F0A7F804483A
:105AB0000068C069447E01F0B9FB204610BD0000BB
:105AC0003802002010B500F099F802F0D9FA044627
:105AD00001F0ACFB204610BD70B514460D460646DD
